:020000040800F2
:10000000C8040020C9000008F1030008ED0300083F
:1000100000000000000000000000000000000000E0
:10002000000000000000000000000000D1090008EE
:10003000000000000000000079040008110B000817
:10004000F900000800000000F9000008F9000008AD
:10005000F9000008F9000008F9010008F90000089B
:1000600000000000F9000008F9000008F90000088D
:10007000F9000008F9000008F9000008000000007D
:10008000E50B00080000000000000000F900000877
:10009000F9000008F9000008F9000008F90000085C
:1000A000F9000008F9000008F90000089D0D00089B
:1000B000F90000080348854600F048F8004800476A
:1000C000D9110008C80400200C4880F308880C48A7
:1000D0000168090E0B4A914205D10B480B4901609A
:1000E0000B480C4901600C4880470C480047FEE76C
:1000F000FEE7FEE7FEE7FEE7FEE70000C80400209B
:10010000040000001F000000181002400100000061
:100110000000014000000000150B0008B5000008B9
:1001200030B50B46014600202022012409E00D468F
:10013000D5409D4205D31D469540491B2546954017
:1001400040191546521E002DF1DC30BD064C01252C
:10015000064E05E0E36807CC2B430C3C984710346F
:10016000B442F7D3FFF7AAFF68120008881200080C
:100170000EB50420019000216846017203214172EE
:10018000002181720221C17201A90920C00600F07C
:10019000B5F808210920C00600F024F906216846B8
:1001A0000170022141700121817000F02DF90420BD
:1001B00000F04CF80EBD0EB50420019001216846F8
:1001C000017203214172002181720221C17201A9D1
:1001D0000920C00600F092F808210920C00600F0AE
:1001E00003F90621684601700221417000218170E7
:1001F00000F00AF90EBD000010B500200F4908708C
:1002000001200F490870042000F026F8002814D0BF
:1002100004210920C00600F0DBF800280AD00948B4
:100220000078092806D100200649087001210648F7
:1002300000F04AFD042000F009F810BD2000002065
:100240001A000020230000200004004001494861FA
:10025000704700000004014001460020044A526932
:100260000A40002A01D0012000E000207047000071
:1002700000040140002120498279002A35D00A4635
:10028000126803689A430B461A600A46526803686C
:100290009A430B465A60027951180A6803681A4358
:1002A0000A60154A926803689A43134B9A601A468B
:1002B000D26803689A43104BDA604279102A0CD155
:1002C0001A46926803681A430B4B9A601A46D26822
:1002D00003681A43084BDA600DE007494279511868
:1002E0000A6803681A430A6005E0027951180A682F
:1002F00003689A430A60704700040140F0B50A465B
:1003000000210023002400BF3DE001258D402B4645
:1003100015681D402C469C4234D11579012D02D020
:100320001579022D16D185684F000326BE40B543CE
:10033000856055794E00B54086683543856085886F
:1003400001268E40B5438580858896798E40B6B269
:100350003543858005684F000326BE40B5430560E0
:1003600015794E00B540066835430560C5684F00F5
:100370000326BE40B543C560D5794E00B540C6687A
:100380003543C560491C1029BFD3F0BDF0B500232B
:1003900000244D07EE0E1546B5402B46CD10AE009D
:1003A00005462035AD594E07F70E0F26BE40B54322
:1003B000CE10B60007462037BD51CD10AE003D46E9
:1003C000AD591D432C46CD10AD003E467451F0BDD5
:1003D00002460020138A0B40002B01D0012000E0D0
:1003E00000207047018570478161704700BFFEE7BC
:1003F00070470246002000BF03E0135CDB43135448
:10040000401C8842F9DB704700218278002A27D0FF
:10041000184A03231B02D21803789B109B00D15863
:1004200002789207D30EFF229A400B469343194657
:1004300042789207120E03789B07DB0E9A40114315
:100440000C4A03231B02D21803789B109B00D15047
:100450000278D306DB0E01229A40064B1A6007E0B1
:100460000278D306DB0E01229A40024B80331A60D9
:100470007047000000E100E070470000002905D04F
:10048000054A52690243044B5A6104E0024A526928
:100490008243014B5A61704700100240002905D089
:1004A000054AD2690243044BDA6104E0024AD26988
:1004B0008243014BDA61704700100240002905D0E9
:1004C000054A92690243044B9A6104E0024A926928
:1004D0008243014B9A61704700100240FEB504460A
:1004E00000250026002002900190009000278648F9
:1004F00040680C2108400546002D06D0042D07D089
:10050000082D08D00C2D2CD128E0804820602BE04D
:100510007E48206028E07C4840680F21890408401C
:100520000646794840680321C90308400290B00C90
:10053000861C0298002803D17548374647430BE0D4
:100540007148C06A0007000F401C01906F48019974
:10055000FFF7E6FD70430746276005E06D48206021
:1005600002E06A48206000BF00BF67484068F02191
:10057000084005462D096848405D009020680099B4
:10058000C84060606048406807210902084005468D
:100590002D0A6148405D009061680098C140A160EB
:1005A0005948006BFF2101310840884202D05B4866
:1005B000E0600DE05448406801218903084088420A
:1005C00003D0A0684008E06002E0A0688008E06016
:1005D0004D48006B40210840402802D0504820611F
:1005E00002E00120C00320614748006B1021084051
:1005F000102802D04548606101E0206860614248EF
:10060000006B8007800F002802D1A068A06119E06C
:100610003D48006B8007800F012802D12068A0614F
:1006200010E03948006B8007800F022802D1800358
:10063000A06107E03448006B8007800F032801D1D8
:100640003248A0613048006B0321090408400028AB
:1006500002D1A068E06120E02B48006B032109046F
:10066000084001210904884202D12068E06114E0B9
:100670002548006B032109040840012149048842F0
:1006800002D18010E06108E01F48006B03210904DB
:100690000840884201D11D48E0611B48006B0321DE
:1006A00089040840002802D1A068206220E0164892
:1006B000006B03218904084001218904884202D18A
:1006C0002068206214E01048006B03218904084070
:1006D0000121C904884202D10011206208E00A48C1
:1006E000006B032189040840884201D10748206239
:1006F0000548006B80210840802802D005486062D0
:1007000000E06762FEBD00000010024000127A00A7
:1007100000093D00006CDC0200000020809FD50035
:1007200012800000F0B507460D460D4806780024FB
:10073000002028700A2000F0FFFC0948007886425B
:100740000DD1002E0BD000BF04E00648005D3855E7
:10075000601CC4B2B442F8DB014800782870F0BDD8
:100760001E0000208000002070B505460E460121C5
:10077000C9020920C006FFF737FE00240CE000BFC5
:1007800040210F4800F044FB0028F9D0295D0C48B7
:1007900000F011FC601CC4B2B442F0DB00BF402189
:1007A000074800F035FB0028F9D000200549087003
:1007B0000121C9020920C006FFF714FE70BD000028
:1007C000003801401000002000B589B00121480424
:1007D000FFF754FE0121C804FFF750FE01218803F2
:1007E000FFF76CFE01220921C806FFF7CFFD0122A9
:1007F0000A210920C006FFF7C9FD012080020090F0
:10080000022168460171032141710021817101219A
:10081000C17169460920C006FFF770FD0120400242
:10082000009069460920C006FFF768FD0820009087
:10083000032168464171002181710121C17101715B
:1008400069460920C006FFF759FD08210920C006A6
:10085000FFF7C8FD0120C0020090032168464171E6
:10086000002181710121C171017169460920C00611
:10087000FFF744FD012040030090032168464171C9
:10088000002181710121C171017169461048FFF792
:1008900035FD4B20C0010390002004900590069088
:1008A00008900C20079003A90A4800F003FB1B21C5
:1008B00068460172002141720121817202A8FFF78E
:1008C000A3FD0121034800F097FA09B000BD000024
:1008D0000008004800380140F8B506460F460024DD
:1008E000002500BF25E0FFF766FC00F033F8002488
:1008F00013E0FFF760FC3946304600F0CDFBFFF710
:1009000037FC002010490870192000F015FC0E4833
:100910000078012800D102E0641C032CE9DB00BF51
:1009200009480078012800D105E0642000F004FCAB
:100930006D1C032DD7DB00BF00200449087004495B
:10094000087001490870F8BD1A000020210000203D
:100950001E00002010B504210920C006FFF744FD49
:100960000D2000F0E9FB04210920C006FFF73AFD45
:10097000082000F0E1FB024800F006FC10BD00007A
:100980001202000070B5044600F093FB00F04AFB31
:100990000A48844201D10A4D0AE00A48844202D141
:1009A0007D252D0104E00848844201D1064D3235F1
:1009B000A8B200F0EDF80548046070BD4E0C0000D0
:1009C0007A0D0000A406000041030000140000207E
:1009D0007047000030B500228B071C0F0F23A34087
:1009E0001A460B4B8C10A4001B599343084C8D10D6
:1009F000AD00635123468C10A4001B598C07250FB2
:100A00000446AC402343024C8D10AD00635130BD11
:100A1000080001400CB500200190009031480068AA
:100A20000121090408432F49086000BF2D480068D0
:100A300001214904084000900198401C0190009851
:100A4000002804D10521090301988842EED12548E8
:100A50000068012149040840002802D001200090CC
:100A600001E0002000900098012839D111201E4992
:100A700008601C4840681B49486008464068486058
:100A8000084640687F21C9038843164948600846E4
:100A9000406811210904084312494860084600686B
:100AA0000121090608430F49086000BF0D4800688E
:100AB0000121490608400028F8D00A48406880080B
:100AC00080000849486008464068022108430549FB
:100AD000486000BF034840680C2108400828F9D14D
:100AE0000CBD00000010024000200240042806D186
:100AF0000649096904221143044A116105E00349CA
:100B0000096904229143014A1161704700E000E045
:100B10007047000010B51B480068012108431949BF
:100B20000860084640681849084016494860084669
:100B3000006816490840134908600846006801210A
:100B4000890488430F490860084640683F2109042A
:100B500088430C4948600846C06A00090001C86221
:100B60000846006BFF215431884306490863084654
:100B7000406B40084000486300208860FFF74AFF50
:100B800010BD0000001002400CB8FFF8FFFFF6FE99
:100B90001FB5044601210220FFF780FC2F21684683
:100BA000818000218181C180601E029001A90C48D2
:100BB00000F0B6F801210A4800F080F80122114641
:100BC000074800F0A2F80021054800F07DF8102148
:100BD00068460170012141708170FFF715FC1FBD4F
:100BE0000004004010B501212E4800F07BF80028D9
:100BF00056D001212B4800F064F82B480078401CA7
:100C00002949087029480078401C2849087026485E
:100C10000078092812D10021224800F055F8244814
:100C200000782449244A1278885423480078401CCC
:100C30002149087000201D49087010BD1B4800782C
:100C4000082811D104210920C006FFF7C1FB0028A4
:100C50000AD115480178491E0120884014490978B5
:100C6000084313490870E8E704210920C006FFF78C
:100C7000AFFB00280AD00C480178491E01208840AB
:100C80000B49097808430A49087009E006480078CA
:100C9000401E0121814006480078884304490870BD
:100CA00000BFCAE700040040230000201F0000200E
:100CB000110000203800002010000020CA430282EA
:100CC0007047CA4302827047002904D0028801237A
:100CD0001A43028003E00288014B1A4002807047E9
:100CE000FEFF000030B50246002000230024158AD4
:100CF0000D402B4695890D402C46002B03D0002C2F
:100D000001D0012000E0002030BD002A03D08389FB
:100D10000B43838102E083898B438381704700000A
:100D200000220288154B984206D001239B07984267
:100D300002D0134B984203D1124B1A404B881A43EE
:100D4000114B984203D0114B1A400B891A43028071
:100D50004B68C3620B880385084B984208D00C4B44
:100D6000984205D00B4B984202D00B4B984201D1D0
:100D70008B7A03860123838270470000002C014098
:100D8000000400408FFF000000100040FFFC000046
:100D900000400140004401400048014010B50120DE
:100DA000104908701049114800F03CF8002817D08D
:100DB00000BF20210D4800F02BF80028F9D00B4887
:100DC00000F0F4F8C4B20A480078242808DA094888
:100DD00007490978445406480078401C04490870C3
:100DE00010BD000020000020050105000038014072
:100DF0001E00002080000020002904D0026801238A
:100E00001A43026003E00268520852000260704711
:100E100002460020D3690B40002B01D0012000E0E6
:100E20000020704770B502460B46002400210025C3
:100E300000201E04350ED9B201268E403146012D08
:100E400002D11668314006E0022D02D156683140C9
:100E500001E0966831401C0C0126A6403446D66954
:100E60003440002903D0002C01D0012000E00020F4
:100E700070BDF8B50346002400260096002500202A
:100E800018460E04340ECEB200960127009EB740DD
:100E90003D46022C01D1001D02E0032C00D1083098
:100EA000002A03D006682E43066002E00668AE43BF
:100EB0000660F8BDF0B58BB004460D460027002053
:100EC0000A900026206840084000206066680321E0
:100ED0000903304688430646A868064366602668CC
:100EE0002D480640E96868680843296908430643B5
:100EF0002660A668032109023046884306466869D1
:100F00000643A6606846FFF7E9FA2448844202D106
:100F100006980A900DE02248844202D107980A9070
:100F200007E02048844202D108980A9001E0029824
:100F30000A9020680121C903084000280CD02968C4
:100F40000A9A5000FFF7ECF8074629680A9A500001
:100F5000FFF7E6F80E4609E029680A98FFF7E0F87F
:100F6000074629680A98FFF7DBF80E46286840080C
:100F7000B04200D87F1C20680121C9030840002826
:100F800006D03807460F3846074908403043074621
:100F9000A7810BB0F0BD0000F3E9FFFF003801406E
:100FA0000044004000480040F0FF00000146888CEB
:100FB000C005C00D7047CA05D20D028570470000FC
:100FC00070B50446002504210920C006FFF70CFA7D
:100FD0001348006800F0D8F800BF15E0E007C00F24
:100FE000002805D004210920C006FFF7FBF904E022
:100FF00004210920C006FFF7F7F90948006800F04E
:10100000C3F86410681CC5B2082DE7DB0421092071
:10101000C006FFF7E7F90248006800F0B5F870BDB8
:101020001400002000B585B004200090002168461F
:10103000017103214171002181710221C171694651
:101040000920C006FFF75AF901210846FFF736FAD2
:1010500002210020FFF7BEFC042003900021684617
:101060000174082141740121817403A8FFF702F97A
:10107000062168460172022141720121817202A893
:10108000FFF7C2F90420FFF7E1F808210920C006A4
:10109000FFF7A8F905B000BD70B505460E4600245F
:1010A00004E0285DFFF78CFF601CC4B2B442F8DB9B
:1010B00070BD1CB504200090012168460171032118
:1010C0004171002181710221C17169460920C00668
:1010D000FFF714F904210920C006FFF785F91CBDAC
:1010E00002E008C8121F08C1002AFAD170477047F1
:1010F000002001E001C1121F002AFBD1704700004F
:1011000010B50420C043FFF7F1FC07490748006809
:10111000FFF706F806490870084600787D21C900E7
:1011200048430449088010BD00127A0024000020C2
:101130001B0000201C0000200146114A12884A436F
:10114000104B5A6100229A611A46126901231A4310
:101150000C4B1A6100BF0B4A1069C207D20F002A5C
:1011600004D0012212040240002AF4D0054A126978
:1011700052085200034B1A6100229A617047000026
:101180001C00002000E000E00146114A12784A43AA
:10119000104B5A6100229A611A46126901231A43C0
:1011A0000C4B1A6100BF0B4A1069C207D20F002A0C
:1011B00004D0012212040240002AF4D0054A126928
:1011C00052085200034B1A6100229A6170470000D6
:1011D0001B00002000E000E0FFF792FFFFF7F4FAA9
:1011E0001948FFF7CFFB012218491948FFF741FEC4
:1011F0000121C9020920C006FFF7F4F823E01548D1
:10120000007800280DD014491448FFF78BFA1248D3
:101210000078002817D0104801781048FFF75CFBD1
:1012200011E00F48007800280DD0FF20F530FFF7BF
:1012300083FF0B4801780B48FFF7DBF8084801787B
:101240000848FFF791FADAE74103000005010500BD
:10125000003801402000002021000020A4000020D0
:101260001000002038000020881200080000002034
:1012700038000000E0100008C0120008380000200C
:1012800090040000F01000080000000001020304B8
:101290000102030406070809000000000000000026
:1012A000000000000000000000000009006CDC02EB
:1012B0000000000000000000010203040607080906
:04000005080000C926
:00000001FF
